{
  "address": "0x5FbDB2315678afecb367f032d93F642f64180aa3",
  "abi": [
    {
      "inputs": [
        {
          "internalType": "string",
          "name": "name",
          "type": "string"
        },
        {
          "internalType": "string",
          "name": "symbol",
          "type": "string"
        }
      ],
      "stateMutability": "nonpayable",
      "type": "constructor"
    },
    {
      "anonymous": false,
      "inputs": [
        {
          "indexed": true,
          "internalType": "address",
          "name": "owner",
          "type": "address"
        },
        {
          "indexed": true,
          "internalType": "address",
          "name": "spender",
          "type": "address"
        },
        {
          "indexed": false,
          "internalType": "uint256",
          "name": "value",
          "type": "uint256"
        }
      ],
      "name": "Approval",
      "type": "event"
    },
    {
      "anonymous": false,
      "inputs": [
        {
          "indexed": true,
          "internalType": "bytes32",
          "name": "role",
          "type": "bytes32"
        },
        {
          "indexed": true,
          "internalType": "bytes32",
          "name": "previousAdminRole",
          "type": "bytes32"
        },
        {
          "indexed": true,
          "internalType": "bytes32",
          "name": "newAdminRole",
          "type": "bytes32"
        }
      ],
      "name": "RoleAdminChanged",
      "type": "event"
    },
    {
      "anonymous": false,
      "inputs": [
        {
          "indexed": true,
          "internalType": "bytes32",
          "name": "role",
          "type": "bytes32"
        },
        {
          "indexed": true,
          "internalType": "address",
          "name": "account",
          "type": "address"
        },
        {
          "indexed": true,
          "internalType": "address",
          "name": "sender",
          "type": "address"
        }
      ],
      "name": "RoleGranted",
      "type": "event"
    },
    {
      "anonymous": false,
      "inputs": [
        {
          "indexed": true,
          "internalType": "bytes32",
          "name": "role",
          "type": "bytes32"
        },
        {
          "indexed": true,
          "internalType": "address",
          "name": "account",
          "type": "address"
        },
        {
          "indexed": true,
          "internalType": "address",
          "name": "sender",
          "type": "address"
        }
      ],
      "name": "RoleRevoked",
      "type": "event"
    },
    {
      "anonymous": false,
      "inputs": [
        {
          "indexed": true,
          "internalType": "address",
          "name": "from",
          "type": "address"
        },
        {
          "indexed": true,
          "internalType": "address",
          "name": "to",
          "type": "address"
        },
        {
          "indexed": false,
          "internalType": "uint256",
          "name": "value",
          "type": "uint256"
        }
      ],
      "name": "Transfer",
      "type": "event"
    },
    {
      "inputs": [],
      "name": "CONTRACT_ROLE",
      "outputs": [
        {
          "internalType": "bytes32",
          "name": "",
          "type": "bytes32"
        }
      ],
      "stateMutability": "view",
      "type": "function"
    },
    {
      "inputs": [],
      "name": "DEFAULT_ADMIN_ROLE",
      "outputs": [
        {
          "internalType": "bytes32",
          "name": "",
          "type": "bytes32"
        }
      ],
      "stateMutability": "view",
      "type": "function"
    },
    {
      "inputs": [],
      "name": "DEPOSITOR_ROLE",
      "outputs": [
        {
          "internalType": "bytes32",
          "name": "",
          "type": "bytes32"
        }
      ],
      "stateMutability": "view",
      "type": "function"
    },
    {
      "inputs": [],
      "name": "MASTER_ROLE",
      "outputs": [
        {
          "internalType": "bytes32",
          "name": "",
          "type": "bytes32"
        }
      ],
      "stateMutability": "view",
      "type": "function"
    },
    {
      "inputs": [
        {
          "internalType": "address",
          "name": "owner",
          "type": "address"
        },
        {
          "internalType": "address",
          "name": "spender",
          "type": "address"
        }
      ],
      "name": "allowance",
      "outputs": [
        {
          "internalType": "uint256",
          "name": "",
          "type": "uint256"
        }
      ],
      "stateMutability": "view",
      "type": "function"
    },
    {
      "inputs": [
        {
          "internalType": "address",
          "name": "spender",
          "type": "address"
        },
        {
          "internalType": "uint256",
          "name": "amount",
          "type": "uint256"
        }
      ],
      "name": "approve",
      "outputs": [
        {
          "internalType": "bool",
          "name": "",
          "type": "bool"
        }
      ],
      "stateMutability": "nonpayable",
      "type": "function"
    },
    {
      "inputs": [
        {
          "internalType": "address",
          "name": "account",
          "type": "address"
        }
      ],
      "name": "balanceOf",
      "outputs": [
        {
          "internalType": "uint256",
          "name": "",
          "type": "uint256"
        }
      ],
      "stateMutability": "view",
      "type": "function"
    },
    {
      "inputs": [],
      "name": "decimals",
      "outputs": [
        {
          "internalType": "uint8",
          "name": "",
          "type": "uint8"
        }
      ],
      "stateMutability": "view",
      "type": "function"
    },
    {
      "inputs": [
        {
          "internalType": "address",
          "name": "spender",
          "type": "address"
        },
        {
          "internalType": "uint256",
          "name": "subtractedValue",
          "type": "uint256"
        }
      ],
      "name": "decreaseAllowance",
      "outputs": [
        {
          "internalType": "bool",
          "name": "",
          "type": "bool"
        }
      ],
      "stateMutability": "nonpayable",
      "type": "function"
    },
    {
      "inputs": [
        {
          "internalType": "address",
          "name": "user",
          "type": "address"
        },
        {
          "internalType": "bytes",
          "name": "depositData",
          "type": "bytes"
        }
      ],
      "name": "deposit",
      "outputs": [],
      "stateMutability": "nonpayable",
      "type": "function"
    },
    {
      "inputs": [
        {
          "internalType": "address",
          "name": "owner",
          "type": "address"
        },
        {
          "internalType": "uint256",
          "name": "amount",
          "type": "uint256"
        }
      ],
      "name": "gameBurn",
      "outputs": [],
      "stateMutability": "nonpayable",
      "type": "function"
    },
    {
      "inputs": [
        {
          "internalType": "address",
          "name": "to",
          "type": "address"
        },
        {
          "internalType": "uint256",
          "name": "amount",
          "type": "uint256"
        }
      ],
      "name": "gameMint",
      "outputs": [],
      "stateMutability": "nonpayable",
      "type": "function"
    },
    {
      "inputs": [
        {
          "internalType": "address",
          "name": "sender",
          "type": "address"
        },
        {
          "internalType": "address",
          "name": "recipient",
          "type": "address"
        },
        {
          "internalType": "uint256",
          "name": "amount",
          "type": "uint256"
        }
      ],
      "name": "gameTransferFrom",
      "outputs": [],
      "stateMutability": "nonpayable",
      "type": "function"
    },
    {
      "inputs": [
        {
          "internalType": "address",
          "name": "owner",
          "type": "address"
        },
        {
          "internalType": "uint256",
          "name": "amount",
          "type": "uint256"
        }
      ],
      "name": "gameWithdraw",
      "outputs": [],
      "stateMutability": "nonpayable",
      "type": "function"
    },
    {
      "inputs": [
        {
          "internalType": "bytes32",
          "name": "role",
          "type": "bytes32"
        }
      ],
      "name": "getRoleAdmin",
      "outputs": [
        {
          "internalType": "bytes32",
          "name": "",
          "type": "bytes32"
        }
      ],
      "stateMutability": "view",
      "type": "function"
    },
    {
      "inputs": [
        {
          "internalType": "bytes32",
          "name": "role",
          "type": "bytes32"
        },
        {
          "internalType": "address",
          "name": "account",
          "type": "address"
        }
      ],
      "name": "grantRole",
      "outputs": [],
      "stateMutability": "nonpayable",
      "type": "function"
    },
    {
      "inputs": [
        {
          "internalType": "bytes32",
          "name": "role",
          "type": "bytes32"
        },
        {
          "internalType": "address",
          "name": "account",
          "type": "address"
        }
      ],
      "name": "hasRole",
      "outputs": [
        {
          "internalType": "bool",
          "name": "",
          "type": "bool"
        }
      ],
      "stateMutability": "view",
      "type": "function"
    },
    {
      "inputs": [
        {
          "internalType": "address",
          "name": "spender",
          "type": "address"
        },
        {
          "internalType": "uint256",
          "name": "addedValue",
          "type": "uint256"
        }
      ],
      "name": "increaseAllowance",
      "outputs": [
        {
          "internalType": "bool",
          "name": "",
          "type": "bool"
        }
      ],
      "stateMutability": "nonpayable",
      "type": "function"
    },
    {
      "inputs": [
        {
          "internalType": "address",
          "name": "account",
          "type": "address"
        },
        {
          "internalType": "uint256",
          "name": "amount",
          "type": "uint256"
        }
      ],
      "name": "mint",
      "outputs": [],
      "stateMutability": "nonpayable",
      "type": "function"
    },
    {
      "inputs": [],
      "name": "name",
      "outputs": [
        {
          "internalType": "string",
          "name": "",
          "type": "string"
        }
      ],
      "stateMutability": "view",
      "type": "function"
    },
    {
      "inputs": [
        {
          "internalType": "bytes32",
          "name": "role",
          "type": "bytes32"
        },
        {
          "internalType": "address",
          "name": "account",
          "type": "address"
        }
      ],
      "name": "renounceRole",
      "outputs": [],
      "stateMutability": "nonpayable",
      "type": "function"
    },
    {
      "inputs": [
        {
          "internalType": "bytes32",
          "name": "role",
          "type": "bytes32"
        },
        {
          "internalType": "address",
          "name": "account",
          "type": "address"
        }
      ],
      "name": "revokeRole",
      "outputs": [],
      "stateMutability": "nonpayable",
      "type": "function"
    },
    {
      "inputs": [
        {
          "internalType": "bytes4",
          "name": "interfaceId",
          "type": "bytes4"
        }
      ],
      "name": "supportsInterface",
      "outputs": [
        {
          "internalType": "bool",
          "name": "",
          "type": "bool"
        }
      ],
      "stateMutability": "view",
      "type": "function"
    },
    {
      "inputs": [],
      "name": "symbol",
      "outputs": [
        {
          "internalType": "string",
          "name": "",
          "type": "string"
        }
      ],
      "stateMutability": "view",
      "type": "function"
    },
    {
      "inputs": [],
      "name": "totalSupply",
      "outputs": [
        {
          "internalType": "uint256",
          "name": "",
          "type": "uint256"
        }
      ],
      "stateMutability": "view",
      "type": "function"
    },
    {
      "inputs": [
        {
          "internalType": "address",
          "name": "to",
          "type": "address"
        },
        {
          "internalType": "uint256",
          "name": "amount",
          "type": "uint256"
        }
      ],
      "name": "transfer",
      "outputs": [
        {
          "internalType": "bool",
          "name": "",
          "type": "bool"
        }
      ],
      "stateMutability": "nonpayable",
      "type": "function"
    },
    {
      "inputs": [
        {
          "internalType": "address",
          "name": "from",
          "type": "address"
        },
        {
          "internalType": "address",
          "name": "to",
          "type": "address"
        },
        {
          "internalType": "uint256",
          "name": "amount",
          "type": "uint256"
        }
      ],
      "name": "transferFrom",
      "outputs": [
        {
          "internalType": "bool",
          "name": "",
          "type": "bool"
        }
      ],
      "stateMutability": "nonpayable",
      "type": "function"
    },
    {
      "inputs": [
        {
          "internalType": "uint256",
          "name": "amount",
          "type": "uint256"
        }
      ],
      "name": "withdraw",
      "outputs": [],
      "stateMutability": "nonpayable",
      "type": "function"
    }
  ],
  "transactionHash": "0x868085539994ee6e6c780ee1c660489a7858edff216b1c6f1cc76665242305c2",
  "args": [
    "Samuel",
    "SAM"
  ],
  "numDeployments": 1,
  "solcInputHash": "3651faf146334a42ef0a1f5f2db2c94b",
  "bytecode": "0x60806040523480156200001157600080fd5b5060405162002df438038062002df4833981810160405281019062000037919062000336565b818181600390805190602001906200005192919062000214565b5080600490805190602001906200006a92919062000214565b505050620000916000801b620000856200009960201b60201c565b620000a160201b60201c565b505062000519565b600033905090565b620000b38282620000b760201b60201c565b5050565b620000c98282620001a960201b60201c565b620001a55760016005600084815260200190815260200160002060000160008373ffffffffffffffffffffffffffffffffffffffff1673ffffffffffffffffffffffffffffffffffffffff16815260200190815260200160002060006101000a81548160ff0219169083151502179055506200014a6200009960201b60201c565b73ffffffffffffffffffffffffffffffffffffffff168173ffffffffffffffffffffffffffffffffffffffff16837f2f8788117e7eff1d82e926ec794901d17c78024a50270940304540a733656f0d60405160405180910390a45b5050565b60006005600084815260200190815260200160002060000160008373ffffffffffffffffffffffffffffffffffffffff1673ffffffffffffffffffffffffffffffffffffffff16815260200190815260200160002060009054906101000a900460ff16905092915050565b82805462000222906200043e565b90600052602060002090601f01602090048101928262000246576000855562000292565b82601f106200026157805160ff191683800117855562000292565b8280016001018555821562000292579182015b828111156200029157825182559160200191906001019062000274565b5b509050620002a19190620002a5565b5090565b5b80821115620002c0576000816000905550600101620002a6565b5090565b6000620002db620002d584620003d2565b620003a9565b905082815260208101848484011115620002f457600080fd5b6200030184828562000408565b509392505050565b600082601f8301126200031b57600080fd5b81516200032d848260208601620002c4565b91505092915050565b600080604083850312156200034a57600080fd5b600083015167ffffffffffffffff8111156200036557600080fd5b620003738582860162000309565b925050602083015167ffffffffffffffff8111156200039157600080fd5b6200039f8582860162000309565b9150509250929050565b6000620003b5620003c8565b9050620003c3828262000474565b919050565b6000604051905090565b600067ffffffffffffffff821115620003f057620003ef620004d9565b5b620003fb8262000508565b9050602081019050919050565b60005b83811015620004285780820151818401526020810190506200040b565b8381111562000438576000848401525b50505050565b600060028204905060018216806200045757607f821691505b602082108114156200046e576200046d620004aa565b5b50919050565b6200047f8262000508565b810181811067ffffffffffffffff82111715620004a157620004a0620004d9565b5b80604052505050565b7f4e487b7100000000000000000000000000000000000000000000000000000000600052602260045260246000fd5b7f4e487b7100000000000000000000000000000000000000000000000000000000600052604160045260246000fd5b6000601f19601f8301169050919050565b6128cb80620005296000396000f3fe608060405234801561001057600080fd5b50600436106101c45760003560e01c806339509351116100f9578063a3b0b5a311610097578063cf2c52cb11610071578063cf2c52cb1461052b578063d547741f14610547578063dc22486314610563578063dd62ed3e14610581576101c4565b8063a3b0b5a3146104ad578063a457c2d7146104cb578063a9059cbb146104fb576101c4565b806370a08231116100d357806370a082311461041157806391d148541461044157806395d89b4114610471578063a217fddf1461048f576101c4565b806339509351146103a957806340c10f19146103d95780634eb90299146103f5576101c4565b8063248a9ca3116101665780632e1a7d4d116101405780632e1a7d4d146103375780632f2ff15d14610353578063313ce5671461036f57806336568abe1461038d576101c4565b8063248a9ca3146102cf578063271292f5146102ff5780632e07f60d1461031b576101c4565b8063095ea7b3116101a2578063095ea7b31461023557806318160ddd146102655780631bf7dfb01461028357806323b872dd1461029f576101c4565b806301ffc9a7146101c957806303fe46ab146101f957806306fdde0314610217575b600080fd5b6101e360048036038101906101de9190611ce7565b6105b1565b6040516101f09190612003565b60405180910390f35b61020161062b565b60405161020e919061201e565b60405180910390f35b61021f61064f565b60405161022c9190612039565b60405180910390f35b61024f600480360381019061024a9190611c46565b6106e1565b60405161025c9190612003565b60405180910390f35b61026d610704565b60405161027a91906121db565b60405180910390f35b61029d60048036038101906102989190611b9f565b61070e565b005b6102b960048036038101906102b49190611b9f565b610749565b6040516102c69190612003565b60405180910390f35b6102e960048036038101906102e49190611c82565b610778565b6040516102f6919061201e565b60405180910390f35b61031960048036038101906103149190611c46565b610798565b005b61033560048036038101906103309190611c46565b6107dc565b005b610351600480360381019061034c9190611d10565b610815565b005b61036d60048036038101906103689190611cab565b610829565b005b61037761084a565b60405161038491906121f6565b60405180910390f35b6103a760048036038101906103a29190611cab565b610853565b005b6103c360048036038101906103be9190611c46565b6108d6565b6040516103d09190612003565b60405180910390f35b6103f360048036038101906103ee9190611c46565b61090d565b005b61040f600480360381019061040a9190611c46565b610946565b005b61042b60048036038101906104269190611b3a565b61097f565b60405161043891906121db565b60405180910390f35b61045b60048036038101906104569190611cab565b6109c7565b6040516104689190612003565b60405180910390f35b610479610a32565b6040516104869190612039565b60405180910390f35b610497610ac4565b6040516104a4919061201e565b60405180910390f35b6104b5610acb565b6040516104c2919061201e565b60405180910390f35b6104e560048036038101906104e09190611c46565b610aef565b6040516104f29190612003565b60405180910390f35b61051560048036038101906105109190611c46565b610b66565b6040516105229190612003565b60405180910390f35b61054560048036038101906105409190611bee565b610b89565b005b610561600480360381019061055c9190611cab565b610bd7565b005b61056b610bf8565b604051610578919061201e565b60405180910390f35b61059b60048036038101906105969190611b63565b610c1c565b6040516105a891906121db565b60405180910390f35b60007f7965db0b000000000000000000000000000000000000000000000000000000007bffffffffffffffffffffffffffffffffffffffffffffffffffffffff1916827bffffffffffffffffffffffffffffffffffffffffffffffffffffffff19161480610624575061062382610ca3565b5b9050919050565b7f364d3d7565c7a8300c96fd53e065d19b65848d7b23b3191adcd55621c744223c81565b60606003805461065e90612404565b80601f016020809104026020016040519081016040528092919081815260200182805461068a90612404565b80156106d75780601f106106ac576101008083540402835291602001916106d7565b820191906000526020600020905b8154815290600101906020018083116106ba57829003601f168201915b5050505050905090565b6000806106ec610d0d565b90506106f9818585610d15565b600191505092915050565b6000600254905090565b7f364d3d7565c7a8300c96fd53e065d19b65848d7b23b3191adcd55621c744223c61073881610ee0565b610743848484610ef4565b50505050565b600080610754610d0d565b9050610761858285611175565b61076c858585610ef4565b60019150509392505050565b600060056000838152602001908152602001600020600101549050919050565b7f364d3d7565c7a8300c96fd53e065d19b65848d7b23b3191adcd55621c744223c6107c281610ee0565b6107cd833084610ef4565b6107d73083611201565b505050565b7f364d3d7565c7a8300c96fd53e065d19b65848d7b23b3191adcd55621c744223c61080681610ee0565b6108108383611201565b505050565b610826610820610d0d565b82611201565b50565b61083282610778565b61083b81610ee0565b61084583836113d8565b505050565b60006012905090565b61085b610d0d565b73ffffffffffffffffffffffffffffffffffffffff168173ffffffffffffffffffffffffffffffffffffffff16146108c8576040517f08c379a00000000000000000000000000000000000000000000000000000000081526004016108bf9061219b565b60405180910390fd5b6108d282826114b9565b5050565b6000806108e1610d0d565b90506109028185856108f38589610c1c565b6108fd9190612238565b610d15565b600191505092915050565b7f8b8c0776df2c2176edf6f82391c35ea4891146d7a976ee36fd07f1a6fb4ead4c61093781610ee0565b610941838361159b565b505050565b7f364d3d7565c7a8300c96fd53e065d19b65848d7b23b3191adcd55621c744223c61097081610ee0565b61097a838361159b565b505050565b60008060008373ffffffffffffffffffffffffffffffffffffffff1673ffffffffffffffffffffffffffffffffffffffff168152602001908152602001600020549050919050565b60006005600084815260200190815260200160002060000160008373ffffffffffffffffffffffffffffffffffffffff1673ffffffffffffffffffffffffffffffffffffffff16815260200190815260200160002060009054906101000a900460ff16905092915050565b606060048054610a4190612404565b80601f0160208091040260200160405190810160405280929190818152602001828054610a6d90612404565b8015610aba5780601f10610a8f57610100808354040283529160200191610aba565b820191906000526020600020905b815481529060010190602001808311610a9d57829003601f168201915b5050505050905090565b6000801b81565b7f8f4f2da22e8ac8f11e15f9fc141cddbb5deea8800186560abb6e68c5496619a981565b600080610afa610d0d565b90506000610b088286610c1c565b905083811015610b4d576040517f08c379a0000000000000000000000000000000000000000000000000000000008152600401610b449061217b565b60405180910390fd5b610b5a8286868403610d15565b60019250505092915050565b600080610b71610d0d565b9050610b7e818585610ef4565b600191505092915050565b7f8f4f2da22e8ac8f11e15f9fc141cddbb5deea8800186560abb6e68c5496619a9610bb381610ee0565b60008383810190610bc49190611d10565b9050610bd0858261159b565b5050505050565b610be082610778565b610be981610ee0565b610bf383836114b9565b505050565b7f8b8c0776df2c2176edf6f82391c35ea4891146d7a976ee36fd07f1a6fb4ead4c81565b6000600160008473ffffffffffffffffffffffffffffffffffffffff1673ffffffffffffffffffffffffffffffffffffffff16815260200190815260200160002060008373ffffffffffffffffffffffffffffffffffffffff1673ffffffffffffffffffffffffffffffffffffffff16815260200190815260200160002054905092915050565b60007f01ffc9a7000000000000000000000000000000000000000000000000000000007bffffffffffffffffffffffffffffffffffffffffffffffffffffffff1916827bffffffffffffffffffffffffffffffffffffffffffffffffffffffff1916149050919050565b600033905090565b600073ffffffffffffffffffffffffffffffffffffffff168373ffffffffffffffffffffffffffffffffffffffff161415610d85576040517f08c379a0000000000000000000000000000000000000000000000000000000008152600401610d7c9061215b565b60405180910390fd5b600073ffffffffffffffffffffffffffffffffffffffff168273ffffffffffffffffffffffffffffffffffffffff161415610df5576040517f08c379a0000000000000000000000000000000000000000000000000000000008152600401610dec906120bb565b60405180910390fd5b80600160008573ffffffffffffffffffffffffffffffffffffffff1673ffffffffffffffffffffffffffffffffffffffff16815260200190815260200160002060008473ffffffffffffffffffffffffffffffffffffffff1673ffffffffffffffffffffffffffffffffffffffff168152602001908152602001600020819055508173ffffffffffffffffffffffffffffffffffffffff168373ffffffffffffffffffffffffffffffffffffffff167f8c5be1e5ebec7d5bd14f71427d1e84f3dd0314c0f7b2291e5b200ac8c7c3b92583604051610ed391906121db565b60405180910390a3505050565b610ef181610eec610d0d565b6116fb565b50565b600073ffffffffffffffffffffffffffffffffffffffff168373ffffffffffffffffffffffffffffffffffffffff161415610f64576040517f08c379a0000000000000000000000000000000000000000000000000000000008152600401610f5b9061213b565b60405180910390fd5b600073ffffffffffffffffffffffffffffffffffffffff168273ffffffffffffffffffffffffffffffffffffffff161415610fd4576040517f08c379a0000000000000000000000000000000000000000000000000000000008152600401610fcb9061207b565b60405180910390fd5b610fdf838383611798565b60008060008573ffffffffffffffffffffffffffffffffffffffff1673ffffffffffffffffffffffffffffffffffffffff16815260200190815260200160002054905081811015611065576040517f08c379a000000000000000000000000000000000000000000000000000000000815260040161105c906120fb565b60405180910390fd5b8181036000808673ffffffffffffffffffffffffffffffffffffffff1673ffffffffffffffffffffffffffffffffffffffff16815260200190815260200160002081905550816000808573ffffffffffffffffffffffffffffffffffffffff1673ffffffffffffffffffffffffffffffffffffffff16815260200190815260200160002060008282546110f89190612238565b925050819055508273ffffffffffffffffffffffffffffffffffffffff168473ffffffffffffffffffffffffffffffffffffffff167fddf252ad1be2c89b69c2b068fc378daa952ba7f163c4a11628f55a4df523b3ef8460405161115c91906121db565b60405180910390a361116f84848461179d565b50505050565b60006111818484610c1c565b90507fffffffffffffffffffffffffffffffffffffffffffffffffffffffffffffffff81146111fb57818110156111ed576040517f08c379a00000000000000000000000000000000000000000000000000000000081526004016111e4906120db565b60405180910390fd5b6111fa8484848403610d15565b5b50505050565b600073ffffffffffffffffffffffffffffffffffffffff168273ffffffffffffffffffffffffffffffffffffffff161415611271576040517f08c379a00000000000000000000000000000000000000000000000000000000081526004016112689061211b565b60405180910390fd5b61127d82600083611798565b60008060008473ffffffffffffffffffffffffffffffffffffffff1673ffffffffffffffffffffffffffffffffffffffff16815260200190815260200160002054905081811015611303576040517f08c379a00000000000000000000000000000000000000000000000000000000081526004016112fa9061209b565b60405180910390fd5b8181036000808573ffffffffffffffffffffffffffffffffffffffff1673ffffffffffffffffffffffffffffffffffffffff16815260200190815260200160002081905550816002600082825461135a91906122e8565b92505081905550600073ffffffffffffffffffffffffffffffffffffffff168373ffffffffffffffffffffffffffffffffffffffff167fddf252ad1be2c89b69c2b068fc378daa952ba7f163c4a11628f55a4df523b3ef846040516113bf91906121db565b60405180910390a36113d38360008461179d565b505050565b6113e282826109c7565b6114b55760016005600084815260200190815260200160002060000160008373ffffffffffffffffffffffffffffffffffffffff1673ffffffffffffffffffffffffffffffffffffffff16815260200190815260200160002060006101000a81548160ff02191690831515021790555061145a610d0d565b73ffffffffffffffffffffffffffffffffffffffff168173ffffffffffffffffffffffffffffffffffffffff16837f2f8788117e7eff1d82e926ec794901d17c78024a50270940304540a733656f0d60405160405180910390a45b5050565b6114c382826109c7565b156115975760006005600084815260200190815260200160002060000160008373ffffffffffffffffffffffffffffffffffffffff1673ffffffffffffffffffffffffffffffffffffffff16815260200190815260200160002060006101000a81548160ff02191690831515021790555061153c610d0d565b73ffffffffffffffffffffffffffffffffffffffff168173ffffffffffffffffffffffffffffffffffffffff16837ff6391f5c32d9c69d2a47ea670b442974b53935d1edc7fd64eb21e047a839171b60405160405180910390a45b5050565b600073ffffffffffffffffffffffffffffffffffffffff168273ffffffffffffffffffffffffffffffffffffffff16141561160b576040517f08c379a0000000000000000000000000000000000000000000000000000000008152600401611602906121bb565b60405180910390fd5b61161760008383611798565b80600260008282546116299190612238565b92505081905550806000808473ffffffffffffffffffffffffffffffffffffffff1673ffffffffffffffffffffffffffffffffffffffff168152602001908152602001600020600082825461167e9190612238565b925050819055508173ffffffffffffffffffffffffffffffffffffffff16600073ffffffffffffffffffffffffffffffffffffffff167fddf252ad1be2c89b69c2b068fc378daa952ba7f163c4a11628f55a4df523b3ef836040516116e391906121db565b60405180910390a36116f76000838361179d565b5050565b61170582826109c7565b6117945761172a8173ffffffffffffffffffffffffffffffffffffffff1660146117a2565b6117388360001c60206117a2565b604051602001611749929190611fc9565b6040516020818303038152906040526040517f08c379a000000000000000000000000000000000000000000000000000000000815260040161178b9190612039565b60405180910390fd5b5050565b505050565b505050565b6060600060028360026117b5919061228e565b6117bf9190612238565b67ffffffffffffffff8111156117fe577f4e487b7100000000000000000000000000000000000000000000000000000000600052604160045260246000fd5b6040519080825280601f01601f1916602001820160405280156118305781602001600182028036833780820191505090505b5090507f30000000000000000000000000000000000000000000000000000000000000008160008151811061188e577f4e487b7100000000000000000000000000000000000000000000000000000000600052603260045260246000fd5b60200101907effffffffffffffffffffffffffffffffffffffffffffffffffffffffffffff1916908160001a9053507f780000000000000000000000000000000000000000000000000000000000000081600181518110611918577f4e487b7100000000000000000000000000000000000000000000000000000000600052603260045260246000fd5b60200101907effffffffffffffffffffffffffffffffffffffffffffffffffffffffffffff1916908160001a90535060006001846002611958919061228e565b6119629190612238565b90505b6001811115611a4e577f3031323334353637383961626364656600000000000000000000000000000000600f8616601081106119ca577f4e487b7100000000000000000000000000000000000000000000000000000000600052603260045260246000fd5b1a60f81b828281518110611a07577f4e487b7100000000000000000000000000000000000000000000000000000000600052603260045260246000fd5b60200101907effffffffffffffffffffffffffffffffffffffffffffffffffffffffffffff1916908160001a905350600485901c945080611a47906123da565b9050611965565b5060008414611a92576040517f08c379a0000000000000000000000000000000000000000000000000000000008152600401611a899061205b565b60405180910390fd5b8091505092915050565b600081359050611aab81612839565b92915050565b600081359050611ac081612850565b92915050565b600081359050611ad581612867565b92915050565b60008083601f840112611aed57600080fd5b8235905067ffffffffffffffff811115611b0657600080fd5b602083019150836001820283011115611b1e57600080fd5b9250929050565b600081359050611b348161287e565b92915050565b600060208284031215611b4c57600080fd5b6000611b5a84828501611a9c565b91505092915050565b60008060408385031215611b7657600080fd5b6000611b8485828601611a9c565b9250506020611b9585828601611a9c565b9150509250929050565b600080600060608486031215611bb457600080fd5b6000611bc286828701611a9c565b9350506020611bd386828701611a9c565b9250506040611be486828701611b25565b9150509250925092565b600080600060408486031215611c0357600080fd5b6000611c1186828701611a9c565b935050602084013567ffffffffffffffff811115611c2e57600080fd5b611c3a86828701611adb565b92509250509250925092565b60008060408385031215611c5957600080fd5b6000611c6785828601611a9c565b9250506020611c7885828601611b25565b9150509250929050565b600060208284031215611c9457600080fd5b6000611ca284828501611ab1565b91505092915050565b60008060408385031215611cbe57600080fd5b6000611ccc85828601611ab1565b9250506020611cdd85828601611a9c565b9150509250929050565b600060208284031215611cf957600080fd5b6000611d0784828501611ac6565b91505092915050565b600060208284031215611d2257600080fd5b6000611d3084828501611b25565b91505092915050565b611d428161232e565b82525050565b611d518161233a565b82525050565b6000611d6282612211565b611d6c818561221c565b9350611d7c8185602086016123a7565b611d8581612494565b840191505092915050565b6000611d9b82612211565b611da5818561222d565b9350611db58185602086016123a7565b80840191505092915050565b6000611dce60208361221c565b9150611dd9826124a5565b602082019050919050565b6000611df160238361221c565b9150611dfc826124ce565b604082019050919050565b6000611e1460228361221c565b9150611e1f8261251d565b604082019050919050565b6000611e3760228361221c565b9150611e428261256c565b604082019050919050565b6000611e5a601d8361221c565b9150611e65826125bb565b602082019050919050565b6000611e7d60268361221c565b9150611e88826125e4565b604082019050919050565b6000611ea060218361221c565b9150611eab82612633565b604082019050919050565b6000611ec360258361221c565b9150611ece82612682565b604082019050919050565b6000611ee660248361221c565b9150611ef1826126d1565b604082019050919050565b6000611f0960178361222d565b9150611f1482612720565b601782019050919050565b6000611f2c60258361221c565b9150611f3782612749565b604082019050919050565b6000611f4f60118361222d565b9150611f5a82612798565b601182019050919050565b6000611f72602f8361221c565b9150611f7d826127c1565b604082019050919050565b6000611f95601f8361221c565b9150611fa082612810565b602082019050919050565b611fb481612390565b82525050565b611fc38161239a565b82525050565b6000611fd482611efc565b9150611fe08285611d90565b9150611feb82611f42565b9150611ff78284611d90565b91508190509392505050565b60006020820190506120186000830184611d39565b92915050565b60006020820190506120336000830184611d48565b92915050565b600060208201905081810360008301526120538184611d57565b905092915050565b6000602082019050818103600083015261207481611dc1565b9050919050565b6000602082019050818103600083015261209481611de4565b9050919050565b600060208201905081810360008301526120b481611e07565b9050919050565b600060208201905081810360008301526120d481611e2a565b9050919050565b600060208201905081810360008301526120f481611e4d565b9050919050565b6000602082019050818103600083015261211481611e70565b9050919050565b6000602082019050818103600083015261213481611e93565b9050919050565b6000602082019050818103600083015261215481611eb6565b9050919050565b6000602082019050818103600083015261217481611ed9565b9050919050565b6000602082019050818103600083015261219481611f1f565b9050919050565b600060208201905081810360008301526121b481611f65565b9050919050565b600060208201905081810360008301526121d481611f88565b9050919050565b60006020820190506121f06000830184611fab565b92915050565b600060208201905061220b6000830184611fba565b92915050565b600081519050919050565b600082825260208201905092915050565b600081905092915050565b600061224382612390565b915061224e83612390565b9250827fffffffffffffffffffffffffffffffffffffffffffffffffffffffffffffffff0382111561228357612282612436565b5b828201905092915050565b600061229982612390565b91506122a483612390565b9250817fffffffffffffffffffffffffffffffffffffffffffffffffffffffffffffffff04831182151516156122dd576122dc612436565b5b828202905092915050565b60006122f382612390565b91506122fe83612390565b92508282101561231157612310612436565b5b828203905092915050565b600061232782612370565b9050919050565b60008115159050919050565b6000819050919050565b60007fffffffff0000000000000000000000000000000000000000000000000000000082169050919050565b600073ffffffffffffffffffffffffffffffffffffffff82169050919050565b6000819050919050565b600060ff82169050919050565b60005b838110156123c55780820151818401526020810190506123aa565b838111156123d4576000848401525b50505050565b60006123e582612390565b915060008214156123f9576123f8612436565b5b600182039050919050565b6000600282049050600182168061241c57607f821691505b602082108114156124305761242f612465565b5b50919050565b7f4e487b7100000000000000000000000000000000000000000000000000000000600052601160045260246000fd5b7f4e487b7100000000000000000000000000000000000000000000000000000000600052602260045260246000fd5b6000601f19601f8301169050919050565b7f537472696e67733a20686578206c656e67746820696e73756666696369656e74600082015250565b7f45524332303a207472616e7366657220746f20746865207a65726f206164647260008201527f6573730000000000000000000000000000000000000000000000000000000000602082015250565b7f45524332303a206275726e20616d6f756e7420657863656564732062616c616e60008201527f6365000000000000000000000000000000000000000000000000000000000000602082015250565b7f45524332303a20617070726f766520746f20746865207a65726f20616464726560008201527f7373000000000000000000000000000000000000000000000000000000000000602082015250565b7f45524332303a20696e73756666696369656e7420616c6c6f77616e6365000000600082015250565b7f45524332303a207472616e7366657220616d6f756e742065786365656473206260008201527f616c616e63650000000000000000000000000000000000000000000000000000602082015250565b7f45524332303a206275726e2066726f6d20746865207a65726f2061646472657360008201527f7300000000000000000000000000000000000000000000000000000000000000602082015250565b7f45524332303a207472616e736665722066726f6d20746865207a65726f20616460008201527f6472657373000000000000000000000000000000000000000000000000000000602082015250565b7f45524332303a20617070726f76652066726f6d20746865207a65726f2061646460008201527f7265737300000000000000000000000000000000000000000000000000000000602082015250565b7f416363657373436f6e74726f6c3a206163636f756e7420000000000000000000600082015250565b7f45524332303a2064656372656173656420616c6c6f77616e63652062656c6f7760008201527f207a65726f000000000000000000000000000000000000000000000000000000602082015250565b7f206973206d697373696e6720726f6c6520000000000000000000000000000000600082015250565b7f416363657373436f6e74726f6c3a2063616e206f6e6c792072656e6f756e636560008201527f20726f6c657320666f722073656c660000000000000000000000000000000000602082015250565b7f45524332303a206d696e7420746f20746865207a65726f206164647265737300600082015250565b6128428161231c565b811461284d57600080fd5b50565b6128598161233a565b811461286457600080fd5b50565b61287081612344565b811461287b57600080fd5b50565b61288781612390565b811461289257600080fd5b5056fea26469706673582212207973d17b0b12fdf15432e1d7cc783dc1ed5881af23fcc4c6cab98e4919b3515b64736f6c63430008040033",
  "devdoc": {
    "kind": "dev",
    "methods": {
      "allowance(address,address)": {
        "details": "See {IERC20-allowance}."
      },
      "approve(address,uint256)": {
        "details": "See {IERC20-approve}. NOTE: If `amount` is the maximum `uint256`, the allowance is not updated on `transferFrom`. This is semantically equivalent to an infinite approval. Requirements: - `spender` cannot be the zero address."
      },
      "balanceOf(address)": {
        "details": "See {IERC20-balanceOf}."
      },
      "decimals()": {
        "details": "Returns the number of decimals used to get its user representation. For example, if `decimals` equals `2`, a balance of `505` tokens should be displayed to a user as `5.05` (`505 / 10 ** 2`). Tokens usually opt for a value of 18, imitating the relationship between Ether and Wei. This is the value {ERC20} uses, unless this function is overridden; NOTE: This information is only used for _display_ purposes: it in no way affects any of the arithmetic of the contract, including {IERC20-balanceOf} and {IERC20-transfer}."
      },
      "decreaseAllowance(address,uint256)": {
        "details": "Atomically decreases the allowance granted to `spender` by the caller. This is an alternative to {approve} that can be used as a mitigation for problems described in {IERC20-approve}. Emits an {Approval} event indicating the updated allowance. Requirements: - `spender` cannot be the zero address. - `spender` must have allowance for the caller of at least `subtractedValue`."
      },
      "deposit(address,bytes)": {
        "details": "Should be callable only by ChildChainManager Should handle deposit by minting the required amount for user Make sure minting is done only by this function",
        "params": {
          "depositData": "abi encoded amount",
          "user": "user address for whom deposit is being done"
        }
      },
      "gameBurn(address,uint256)": {
        "details": "_burn handles the amount checkingto prevent double milking :p we have to transfer token before burning itDue to the way PoS bridge works we have to use a _burnHolderAddress that we controlon the Ethereum side. Contract will work but wallet is more versatile.",
        "params": {
          "amount": "Amount of tokens to burn",
          "owner": "Holder address to burn tokens of"
        }
      },
      "gameMint(address,uint256)": {
        "details": "Only activate users should ever be minted GoldReserved for game generation of Gold via quests/battles/etc...",
        "params": {
          "amount": "Amount of Gold to send - wei",
          "to": "Address to mint to"
        }
      },
      "gameTransferFrom(address,address,uint256)": {
        "details": "_transfer() handles amount check",
        "params": {
          "amount": "Amount of Gold to send - wei",
          "recipient": "Address to transfer to",
          "sender": "Address to transfer from"
        }
      },
      "gameWithdraw(address,uint256)": {
        "details": "Should burn user's tokens. This transaction will be verified when exiting on root chainUser requests withdrawal and game system handles it so we have to stipulate the users addressStrictly speaking a logged in user has given us permission to do this, but its polite to ask :)_burn() handles quantity check",
        "params": {
          "amount": "amount of tokens to withdraw",
          "owner": "address of user withdrawing tokens"
        }
      },
      "getRoleAdmin(bytes32)": {
        "details": "Returns the admin role that controls `role`. See {grantRole} and {revokeRole}. To change a role's admin, use {_setRoleAdmin}."
      },
      "grantRole(bytes32,address)": {
        "details": "Grants `role` to `account`. If `account` had not been already granted `role`, emits a {RoleGranted} event. Requirements: - the caller must have ``role``'s admin role."
      },
      "hasRole(bytes32,address)": {
        "details": "Returns `true` if `account` has been granted `role`."
      },
      "increaseAllowance(address,uint256)": {
        "details": "Atomically increases the allowance granted to `spender` by the caller. This is an alternative to {approve} that can be used as a mitigation for problems described in {IERC20-approve}. Emits an {Approval} event indicating the updated allowance. Requirements: - `spender` cannot be the zero address."
      },
      "mint(address,uint256)": {
        "details": "Designed for minting of initial token allocations",
        "params": {
          "account": "user for whom tokens are being minted",
          "amount": "amount of token to mint in wei"
        }
      },
      "name()": {
        "details": "Returns the name of the token."
      },
      "renounceRole(bytes32,address)": {
        "details": "Revokes `role` from the calling account. Roles are often managed via {grantRole} and {revokeRole}: this function's purpose is to provide a mechanism for accounts to lose their privileges if they are compromised (such as when a trusted device is misplaced). If the calling account had been revoked `role`, emits a {RoleRevoked} event. Requirements: - the caller must be `account`."
      },
      "revokeRole(bytes32,address)": {
        "details": "Revokes `role` from `account`. If `account` had been granted `role`, emits a {RoleRevoked} event. Requirements: - the caller must have ``role``'s admin role."
      },
      "supportsInterface(bytes4)": {
        "details": "See {IERC165-supportsInterface}."
      },
      "symbol()": {
        "details": "Returns the symbol of the token, usually a shorter version of the name."
      },
      "totalSupply()": {
        "details": "See {IERC20-totalSupply}."
      },
      "transfer(address,uint256)": {
        "details": "See {IERC20-transfer}. Requirements: - `to` cannot be the zero address. - the caller must have a balance of at least `amount`."
      },
      "transferFrom(address,address,uint256)": {
        "details": "See {IERC20-transferFrom}. Emits an {Approval} event indicating the updated allowance. This is not required by the EIP. See the note at the beginning of {ERC20}. NOTE: Does not update the allowance if the current allowance is the maximum `uint256`. Requirements: - `from` and `to` cannot be the zero address. - `from` must have a balance of at least `amount`. - the caller must have allowance for ``from``'s tokens of at least `amount`."
      },
      "withdraw(uint256)": {
        "details": "Should burn user's tokens. This transaction will be verified when exiting on root chainexternal with no role to allow users requesting withdraw of token when not part of game_burn() handles quantity check",
        "params": {
          "amount": "amount of tokens to withdraw"
        }
      }
    },
    "version": 1
  },
  "userdoc": {
    "kind": "user",
    "methods": {
      "deposit(address,bytes)": {
        "notice": "called when token is deposited on root chain"
      },
      "gameBurn(address,uint256)": {
        "notice": "Allows system to burn tokens"
      },
      "gameMint(address,uint256)": {
        "notice": "Mint a user some gold"
      },
      "gameTransferFrom(address,address,uint256)": {
        "notice": "Allow the system to manage Milk within itself"
      },
      "gameWithdraw(address,uint256)": {
        "notice": "called when user wants to withdraw tokens back to root chain"
      },
      "mint(address,uint256)": {
        "notice": "Mint that MILK"
      },
      "withdraw(uint256)": {
        "notice": "called when user wants to withdraw tokens back to root chain"
      }
    },
    "version": 1
  },
  "storageLayout": {
    "storage": [
      {
        "astId": 1809,
        "contract": "contracts/Milk.sol:Milk",
        "label": "_balances",
        "offset": 0,
        "slot": "0",
        "type": "t_mapping(t_address,t_uint256)"
      },
      {
        "astId": 1815,
        "contract": "contracts/Milk.sol:Milk",
        "label": "_allowances",
        "offset": 0,
        "slot": "1",
        "type": "t_mapping(t_address,t_mapping(t_address,t_uint256))"
      },
      {
        "astId": 1817,
        "contract": "contracts/Milk.sol:Milk",
        "label": "_totalSupply",
        "offset": 0,
        "slot": "2",
        "type": "t_uint256"
      },
      {
        "astId": 1819,
        "contract": "contracts/Milk.sol:Milk",
        "label": "_name",
        "offset": 0,
        "slot": "3",
        "type": "t_string_storage"
      },
      {
        "astId": 1821,
        "contract": "contracts/Milk.sol:Milk",
        "label": "_symbol",
        "offset": 0,
        "slot": "4",
        "type": "t_string_storage"
      },
      {
        "astId": 24,
        "contract": "contracts/Milk.sol:Milk",
        "label": "_roles",
        "offset": 0,
        "slot": "5",
        "type": "t_mapping(t_bytes32,t_struct(RoleData)19_storage)"
      }
    ],
    "types": {
      "t_address": {
        "encoding": "inplace",
        "label": "address",
        "numberOfBytes": "20"
      },
      "t_bool": {
        "encoding": "inplace",
        "label": "bool",
        "numberOfBytes": "1"
      },
      "t_bytes32": {
        "encoding": "inplace",
        "label": "bytes32",
        "numberOfBytes": "32"
      },
      "t_mapping(t_address,t_bool)": {
        "encoding": "mapping",
        "key": "t_address",
        "label": "mapping(address => bool)",
        "numberOfBytes": "32",
        "value": "t_bool"
      },
      "t_mapping(t_address,t_mapping(t_address,t_uint256))": {
        "encoding": "mapping",
        "key": "t_address",
        "label": "mapping(address => mapping(address => uint256))",
        "numberOfBytes": "32",
        "value": "t_mapping(t_address,t_uint256)"
      },
      "t_mapping(t_address,t_uint256)": {
        "encoding": "mapping",
        "key": "t_address",
        "label": "mapping(address => uint256)",
        "numberOfBytes": "32",
        "value": "t_uint256"
      },
      "t_mapping(t_bytes32,t_struct(RoleData)19_storage)": {
        "encoding": "mapping",
        "key": "t_bytes32",
        "label": "mapping(bytes32 => struct AccessControl.RoleData)",
        "numberOfBytes": "32",
        "value": "t_struct(RoleData)19_storage"
      },
      "t_string_storage": {
        "encoding": "bytes",
        "label": "string",
        "numberOfBytes": "32"
      },
      "t_struct(RoleData)19_storage": {
        "encoding": "inplace",
        "label": "struct AccessControl.RoleData",
        "members": [
          {
            "astId": 16,
            "contract": "contracts/Milk.sol:Milk",
            "label": "members",
            "offset": 0,
            "slot": "0",
            "type": "t_mapping(t_address,t_bool)"
          },
          {
            "astId": 18,
            "contract": "contracts/Milk.sol:Milk",
            "label": "adminRole",
            "offset": 0,
            "slot": "1",
            "type": "t_bytes32"
          }
        ],
        "numberOfBytes": "64"
      },
      "t_uint256": {
        "encoding": "inplace",
        "label": "uint256",
        "numberOfBytes": "32"
      }
    }
  }
}